{
  "contractName": "CryptoWills",
  "abi": [
    {
      "inputs": [
        {
          "internalType": "address",
          "name": "_MrJohn",
          "type": "address"
        }
      ],
      "payable": false,
      "stateMutability": "nonpayable",
      "type": "constructor"
    },
    {
      "constant": true,
      "inputs": [
        {
          "internalType": "address",
          "name": "",
          "type": "address"
        }
      ],
      "name": "bannedNotaries",
      "outputs": [
        {
          "internalType": "bool",
          "name": "",
          "type": "bool"
        }
      ],
      "payable": false,
      "stateMutability": "view",
      "type": "function"
    },
    {
      "constant": true,
      "inputs": [
        {
          "internalType": "address",
          "name": "",
          "type": "address"
        },
        {
          "internalType": "address",
          "name": "",
          "type": "address"
        }
      ],
      "name": "mainDelPerson",
      "outputs": [
        {
          "internalType": "bool",
          "name": "",
          "type": "bool"
        }
      ],
      "payable": false,
      "stateMutability": "view",
      "type": "function"
    },
    {
      "constant": true,
      "inputs": [
        {
          "internalType": "address",
          "name": "",
          "type": "address"
        },
        {
          "internalType": "address",
          "name": "",
          "type": "address"
        }
      ],
      "name": "mainDelPersonMain",
      "outputs": [
        {
          "internalType": "bool",
          "name": "",
          "type": "bool"
        }
      ],
      "payable": false,
      "stateMutability": "view",
      "type": "function"
    },
    {
      "constant": true,
      "inputs": [
        {
          "internalType": "address",
          "name": "",
          "type": "address"
        },
        {
          "internalType": "address",
          "name": "",
          "type": "address"
        }
      ],
      "name": "mainPerson",
      "outputs": [
        {
          "internalType": "bool",
          "name": "",
          "type": "bool"
        }
      ],
      "payable": false,
      "stateMutability": "view",
      "type": "function"
    },
    {
      "constant": true,
      "inputs": [
        {
          "internalType": "address",
          "name": "",
          "type": "address"
        }
      ],
      "name": "mainPersonDelVotes",
      "outputs": [
        {
          "internalType": "uint256",
          "name": "",
          "type": "uint256"
        }
      ],
      "payable": false,
      "stateMutability": "view",
      "type": "function"
    },
    {
      "constant": true,
      "inputs": [
        {
          "internalType": "address",
          "name": "",
          "type": "address"
        }
      ],
      "name": "mainPersonVotes",
      "outputs": [
        {
          "internalType": "uint256",
          "name": "",
          "type": "uint256"
        }
      ],
      "payable": false,
      "stateMutability": "view",
      "type": "function"
    },
    {
      "constant": true,
      "inputs": [
        {
          "internalType": "uint256",
          "name": "",
          "type": "uint256"
        }
      ],
      "name": "mainPersons",
      "outputs": [
        {
          "internalType": "address",
          "name": "",
          "type": "address"
        }
      ],
      "payable": false,
      "stateMutability": "view",
      "type": "function"
    },
    {
      "constant": true,
      "inputs": [
        {
          "internalType": "uint256",
          "name": "",
          "type": "uint256"
        }
      ],
      "name": "notaries",
      "outputs": [
        {
          "internalType": "address",
          "name": "",
          "type": "address"
        }
      ],
      "payable": false,
      "stateMutability": "view",
      "type": "function"
    },
    {
      "constant": true,
      "inputs": [
        {
          "internalType": "address",
          "name": "",
          "type": "address"
        }
      ],
      "name": "notariesNames",
      "outputs": [
        {
          "internalType": "string",
          "name": "",
          "type": "string"
        }
      ],
      "payable": false,
      "stateMutability": "view",
      "type": "function"
    },
    {
      "constant": true,
      "inputs": [],
      "name": "notaryCount",
      "outputs": [
        {
          "internalType": "uint256",
          "name": "",
          "type": "uint256"
        }
      ],
      "payable": false,
      "stateMutability": "view",
      "type": "function"
    },
    {
      "constant": true,
      "inputs": [
        {
          "internalType": "address",
          "name": "",
          "type": "address"
        }
      ],
      "name": "notaryDelVotes",
      "outputs": [
        {
          "internalType": "uint256",
          "name": "",
          "type": "uint256"
        }
      ],
      "payable": false,
      "stateMutability": "view",
      "type": "function"
    },
    {
      "constant": true,
      "inputs": [
        {
          "internalType": "address",
          "name": "",
          "type": "address"
        }
      ],
      "name": "notaryVotes",
      "outputs": [
        {
          "internalType": "uint256",
          "name": "",
          "type": "uint256"
        }
      ],
      "payable": false,
      "stateMutability": "view",
      "type": "function"
    },
    {
      "constant": true,
      "inputs": [
        {
          "internalType": "address",
          "name": "_address",
          "type": "address"
        }
      ],
      "name": "isMainPerson",
      "outputs": [
        {
          "internalType": "bool",
          "name": "",
          "type": "bool"
        }
      ],
      "payable": false,
      "stateMutability": "view",
      "type": "function"
    },
    {
      "constant": true,
      "inputs": [
        {
          "internalType": "address",
          "name": "_address",
          "type": "address"
        }
      ],
      "name": "isNotary",
      "outputs": [
        {
          "internalType": "bool",
          "name": "",
          "type": "bool"
        }
      ],
      "payable": false,
      "stateMutability": "view",
      "type": "function"
    },
    {
      "constant": false,
      "inputs": [
        {
          "internalType": "address",
          "name": "_newNotary",
          "type": "address"
        },
        {
          "internalType": "string",
          "name": "_name",
          "type": "string"
        }
      ],
      "name": "addNotary",
      "outputs": [],
      "payable": false,
      "stateMutability": "nonpayable",
      "type": "function"
    },
    {
      "constant": false,
      "inputs": [
        {
          "internalType": "address",
          "name": "_Notary",
          "type": "address"
        }
      ],
      "name": "removeNotary",
      "outputs": [],
      "payable": false,
      "stateMutability": "nonpayable",
      "type": "function"
    },
    {
      "constant": false,
      "inputs": [
        {
          "internalType": "address",
          "name": "_newMainPerson",
          "type": "address"
        }
      ],
      "name": "addMainPerson",
      "outputs": [],
      "payable": false,
      "stateMutability": "nonpayable",
      "type": "function"
    },
    {
      "constant": false,
      "inputs": [
        {
          "internalType": "address",
          "name": "_MainPerson",
          "type": "address"
        }
      ],
      "name": "removeMainPerson",
      "outputs": [],
      "payable": false,
      "stateMutability": "nonpayable",
      "type": "function"
    },
    {
      "constant": true,
      "inputs": [
        {
          "internalType": "uint256",
          "name": "_pesel",
          "type": "uint256"
        }
      ],
      "name": "showFirstPartM",
      "outputs": [
        {
          "internalType": "string",
          "name": "",
          "type": "string"
        },
        {
          "internalType": "string",
          "name": "",
          "type": "string"
        },
        {
          "internalType": "string",
          "name": "",
          "type": "string"
        }
      ],
      "payable": false,
      "stateMutability": "view",
      "type": "function"
    },
    {
      "constant": true,
      "inputs": [
        {
          "internalType": "uint256",
          "name": "_pesel",
          "type": "uint256"
        }
      ],
      "name": "showSecoundPartM",
      "outputs": [
        {
          "internalType": "uint256[]",
          "name": "",
          "type": "uint256[]"
        },
        {
          "internalType": "address[]",
          "name": "",
          "type": "address[]"
        },
        {
          "internalType": "string",
          "name": "",
          "type": "string"
        }
      ],
      "payable": false,
      "stateMutability": "view",
      "type": "function"
    },
    {
      "constant": true,
      "inputs": [
        {
          "internalType": "uint256",
          "name": "_pesel",
          "type": "uint256"
        }
      ],
      "name": "showFirstPartN",
      "outputs": [
        {
          "internalType": "string",
          "name": "",
          "type": "string"
        },
        {
          "internalType": "string",
          "name": "",
          "type": "string"
        },
        {
          "internalType": "string",
          "name": "",
          "type": "string"
        }
      ],
      "payable": false,
      "stateMutability": "view",
      "type": "function"
    },
    {
      "constant": true,
      "inputs": [
        {
          "internalType": "uint256",
          "name": "_pesel",
          "type": "uint256"
        }
      ],
      "name": "showSecoundPartN",
      "outputs": [
        {
          "internalType": "uint256[]",
          "name": "",
          "type": "uint256[]"
        },
        {
          "internalType": "address[]",
          "name": "",
          "type": "address[]"
        },
        {
          "internalType": "string",
          "name": "",
          "type": "string"
        }
      ],
      "payable": false,
      "stateMutability": "view",
      "type": "function"
    },
    {
      "constant": true,
      "inputs": [
        {
          "internalType": "address",
          "name": "_address",
          "type": "address"
        }
      ],
      "name": "whoHasCreated",
      "outputs": [
        {
          "internalType": "string",
          "name": "",
          "type": "string"
        }
      ],
      "payable": false,
      "stateMutability": "view",
      "type": "function"
    },
    {
      "constant": false,
      "inputs": [
        {
          "internalType": "uint256",
          "name": "pesel",
          "type": "uint256"
        },
        {
          "internalType": "string",
          "name": "_name",
          "type": "string"
        },
        {
          "internalType": "string",
          "name": "_date",
          "type": "string"
        },
        {
          "internalType": "string",
          "name": "_content",
          "type": "string"
        },
        {
          "internalType": "string",
          "name": "_will",
          "type": "string"
        }
      ],
      "name": "addWill",
      "outputs": [],
      "payable": false,
      "stateMutability": "nonpayable",
      "type": "function"
    }
  ],
  "bytecode": "0x60806040523480156200001157600080fd5b50604051620032a8380380620032a8833981810160405260208110156200003757600080fd5b8101908080519060200190929190505050600c8190806001815401808255809150509060018203906000526020600020016000909192909190916101000a81548173ffffffffffffffffffffffffffffffffffffffff021916908373ffffffffffffffffffffffffffffffffffffffff160217905550506040518060400160405280600681526020017f4d724a6f686e0000000000000000000000000000000000000000000000000000815250600a60008373ffffffffffffffffffffffffffffffffffffffff1673ffffffffffffffffffffffffffffffffffffffff168152602001908152602001600020908051906020019062000138929190620001b8565b5060098190806001815401808255809150509060018203906000526020600020016000909192909190916101000a81548173ffffffffffffffffffffffffffffffffffffffff021916908373ffffffffffffffffffffffffffffffffffffffff160217905550506003600081548092919060010191905055505062000267565b828054600181600116156101000203166002900490600052602060002090601f016020900481019282601f10620001fb57805160ff19168380011785556200022c565b828001600101855582156200022c579182015b828111156200022b5782518255916020019190600101906200020e565b5b5090506200023b91906200023f565b5090565b6200026491905b808211156200026057600081600090555060010162000246565b5090565b90565b61303180620002776000396000f3fe608060405234801561001057600080fd5b50600436106101585760003560e01c80639dc66c85116100c3578063d851043c1161007c578063d851043c14610e44578063dec3dedf14610ec0578063f13eed9714610f7d578063fb3aa37214610fd9578063fd70670914611055578063fe72f5481461109957610158565b80639dc66c8514610707578063c2e0b48114610886578063c4be8eee14610b10578063c53b412914610c47578063ccb2631e14610cb5578063cecbc41f14610dec57610158565b806376b49f2a1161011557806376b49f2a1461049e57806382c8d6931461051a57806386785a6f146105385780638dee49531461057c578063904fada2146106575780639437b3ea146106af57610158565b8063045697e71461015d57806315eb9f77146101b95780631af3b5281461021157806340e7fb8b1461025557806342a130e9146103d45780636d4b76d514610430575b600080fd5b61019f6004803603602081101561017357600080fd5b81019080803573ffffffffffffffffffffffffffffffffffffffff169060200190929190505050611156565b604051808215151515815260200191505060405180910390f35b6101fb600480360360208110156101cf57600080fd5b81019080803573ffffffffffffffffffffffffffffffffffffffff1690602001909291905050506111f8565b6040518082815260200191505060405180910390f35b6102536004803603602081101561022757600080fd5b81019080803573ffffffffffffffffffffffffffffffffffffffff169060200190929190505050611210565b005b6102816004803603602081101561026b57600080fd5b81019080803590602001909291905050506114ec565b60405180806020018060200180602001848103845287818151815260200191508051906020019080838360005b838110156102c95780820151818401526020810190506102ae565b50505050905090810190601f1680156102f65780820380516001836020036101000a031916815260200191505b50848103835286818151815260200191508051906020019080838360005b8381101561032f578082015181840152602081019050610314565b50505050905090810190601f16801561035c5780820380516001836020036101000a031916815260200191505b50848103825285818151815260200191508051906020019080838360005b8381101561039557808201518184015260208101905061037a565b50505050905090810190601f1680156103c25780820380516001836020036101000a031916815260200191505b50965050505050505060405180910390f35b610416600480360360208110156103ea57600080fd5b81019080803573ffffffffffffffffffffffffffffffffffffffff1690602001909291905050506115d5565b604051808215151515815260200191505060405180910390f35b61045c6004803603602081101561044657600080fd5b81019080803590602001909291905050506115f5565b604051808273ffffffffffffffffffffffffffffffffffffffff1673ffffffffffffffffffffffffffffffffffffffff16815260200191505060405180910390f35b610500600480360360408110156104b457600080fd5b81019080803573ffffffffffffffffffffffffffffffffffffffff169060200190929190803573ffffffffffffffffffffffffffffffffffffffff169060200190929190505050611631565b604051808215151515815260200191505060405180910390f35b610522611660565b6040518082815260200191505060405180910390f35b61057a6004803603602081101561054e57600080fd5b81019080803573ffffffffffffffffffffffffffffffffffffffff169060200190929190505050611666565b005b6106556004803603604081101561059257600080fd5b81019080803573ffffffffffffffffffffffffffffffffffffffff169060200190929190803590602001906401000000008111156105cf57600080fd5b8201836020820111156105e157600080fd5b8035906020019184600183028401116401000000008311171561060357600080fd5b91908080601f016020809104026020016040519081016040528093929190818152602001838380828437600081840152601f19601f82011690508083019250505050505050919291929050505061193f565b005b6106996004803603602081101561066d57600080fd5b81019080803573ffffffffffffffffffffffffffffffffffffffff169060200190929190505050611ce9565b6040518082815260200191505060405180910390f35b6106f1600480360360208110156106c557600080fd5b81019080803573ffffffffffffffffffffffffffffffffffffffff169060200190929190505050611d01565b6040518082815260200191505060405180910390f35b6107336004803603602081101561071d57600080fd5b8101908080359060200190929190505050611d19565b60405180806020018060200180602001848103845287818151815260200191508051906020019080838360005b8381101561077b578082015181840152602081019050610760565b50505050905090810190601f1680156107a85780820380516001836020036101000a031916815260200191505b50848103835286818151815260200191508051906020019080838360005b838110156107e15780820151818401526020810190506107c6565b50505050905090810190601f16801561080e5780820380516001836020036101000a031916815260200191505b50848103825285818151815260200191508051906020019080838360005b8381101561084757808201518184015260208101905061082c565b50505050905090810190601f1680156108745780820380516001836020036101000a031916815260200191505b50965050505050505060405180910390f35b610b0e600480360360a081101561089c57600080fd5b8101908080359060200190929190803590602001906401000000008111156108c357600080fd5b8201836020820111156108d557600080fd5b803590602001918460018302840111640100000000831117156108f757600080fd5b91908080601f016020809104026020016040519081016040528093929190818152602001838380828437600081840152601f19601f8201169050808301925050505050505091929192908035906020019064010000000081111561095a57600080fd5b82018360208201111561096c57600080fd5b8035906020019184600183028401116401000000008311171561098e57600080fd5b91908080601f016020809104026020016040519081016040528093929190818152602001838380828437600081840152601f19601f820116905080830192505050505050509192919290803590602001906401000000008111156109f157600080fd5b820183602082011115610a0357600080fd5b80359060200191846001830284011164010000000083111715610a2557600080fd5b91908080601f016020809104026020016040519081016040528093929190818152602001838380828437600081840152601f19601f82011690508083019250505050505050919291929080359060200190640100000000811115610a8857600080fd5b820183602082011115610a9a57600080fd5b80359060200191846001830284011164010000000083111715610abc57600080fd5b91908080601f016020809104026020016040519081016040528093929190818152602001838380828437600081840152601f19601f820116905080830192505050505050509192919290505050611f37565b005b610b3c60048036036020811015610b2657600080fd5b810190808035906020019092919050505061223a565b60405180806020018060200180602001848103845287818151815260200191508051906020019060200280838360005b83811015610b87578082015181840152602081019050610b6c565b50505050905001848103835286818151815260200191508051906020019060200280838360005b83811015610bc9578082015181840152602081019050610bae565b50505050905001848103825285818151815260200191508051906020019080838360005b83811015610c08578082015181840152602081019050610bed565b50505050905090810190601f168015610c355780820380516001836020036101000a031916815260200191505b50965050505050505060405180910390f35b610c7360048036036020811015610c5d57600080fd5b8101908080359060200190929190505050612323565b604051808273ffffffffffffffffffffffffffffffffffffffff1673ffffffffffffffffffffffffffffffffffffffff16815260200191505060405180910390f35b610ce160048036036020811015610ccb57600080fd5b810190808035906020019092919050505061235f565b60405180806020018060200180602001848103845287818151815260200191508051906020019060200280838360005b83811015610d2c578082015181840152602081019050610d11565b50505050905001848103835286818151815260200191508051906020019060200280838360005b83811015610d6e578082015181840152602081019050610d53565b50505050905001848103825285818151815260200191508051906020019080838360005b83811015610dad578082015181840152602081019050610d92565b50505050905090810190601f168015610dda5780820380516001836020036101000a031916815260200191505b50965050505050505060405180910390f35b610e2e60048036036020811015610e0257600080fd5b81019080803573ffffffffffffffffffffffffffffffffffffffff16906020019092919050505061257d565b6040518082815260200191505060405180910390f35b610ea660048036036040811015610e5a57600080fd5b81019080803573ffffffffffffffffffffffffffffffffffffffff169060200190929190803573ffffffffffffffffffffffffffffffffffffffff169060200190929190505050612595565b604051808215151515815260200191505060405180910390f35b610f0260048036036020811015610ed657600080fd5b81019080803573ffffffffffffffffffffffffffffffffffffffff1690602001909291905050506125c4565b6040518080602001828103825283818151815260200191508051906020019080838360005b83811015610f42578082015181840152602081019050610f27565b50505050905090810190601f168015610f6f5780820380516001836020036101000a031916815260200191505b509250505060405180910390f35b610fbf60048036036020811015610f9357600080fd5b81019080803573ffffffffffffffffffffffffffffffffffffffff1690602001909291905050506126a5565b604051808215151515815260200191505060405180910390f35b61103b60048036036040811015610fef57600080fd5b81019080803573ffffffffffffffffffffffffffffffffffffffff169060200190929190803573ffffffffffffffffffffffffffffffffffffffff169060200190929190505050612747565b604051808215151515815260200191505060405180910390f35b6110976004803603602081101561106b57600080fd5b81019080803573ffffffffffffffffffffffffffffffffffffffff169060200190929190505050612776565b005b6110db600480360360208110156110af57600080fd5b81019080803573ffffffffffffffffffffffffffffffffffffffff169060200190929190505050612ab5565b6040518080602001828103825283818151815260200191508051906020019080838360005b8381101561111b578082015181840152602081019050611100565b50505050905090810190601f1680156111485780820380516001836020036101000a031916815260200191505b509250505060405180910390f35b600080600090505b600c805490508110156111ed578273ffffffffffffffffffffffffffffffffffffffff16600c828154811061118f57fe5b9060005260206000200160009054906101000a900473ffffffffffffffffffffffffffffffffffffffff1673ffffffffffffffffffffffffffffffffffffffff1614156111e05760019150506111f3565b808060010191505061115e565b50600090505b919050565b60066020528060005260406000206000915090505481565b33600080905060008090505b600c805490508110156112a6578273ffffffffffffffffffffffffffffffffffffffff16600c828154811061124d57fe5b9060005260206000200160009054906101000a900473ffffffffffffffffffffffffffffffffffffffff1673ffffffffffffffffffffffffffffffffffffffff16141561129957600191505b808060010191505061121c565b5060011515811515146112b857600080fd5b600015156000803373ffffffffffffffffffffffffffffffffffffffff1673ffffffffffffffffffffffffffffffffffffffff16815260200190815260200160002060008573ffffffffffffffffffffffffffffffffffffffff1673ffffffffffffffffffffffffffffffffffffffff16815260200190815260200160002060009054906101000a900460ff1615151461135157600080fd5b600560008473ffffffffffffffffffffffffffffffffffffffff1673ffffffffffffffffffffffffffffffffffffffff1681526020019081526020016000206000815480929190600101919050555060016000803373ffffffffffffffffffffffffffffffffffffffff1673ffffffffffffffffffffffffffffffffffffffff16815260200190815260200160002060008573ffffffffffffffffffffffffffffffffffffffff1673ffffffffffffffffffffffffffffffffffffffff16815260200190815260200160002060006101000a81548160ff021916908315150217905550600c80549050600560008573ffffffffffffffffffffffffffffffffffffffff1673ffffffffffffffffffffffffffffffffffffffff1681526020019081526020016000205414156114e757600c8390806001815401808255809150509060018203906000526020600020016000909192909190916101000a81548173ffffffffffffffffffffffffffffffffffffffff021916908373ffffffffffffffffffffffffffffffffffffffff160217905550505b505050565b606080606033600080905060008090505b600c80549050811015611587578273ffffffffffffffffffffffffffffffffffffffff16600c828154811061152e57fe5b9060005260206000200160009054906101000a900473ffffffffffffffffffffffffffffffffffffffff1673ffffffffffffffffffffffffffffffffffffffff16141561157a57600191505b80806001019150506114fd565b50600115158115151461159957600080fd5b60606115a487612b65565b905060606115b188612c1d565b905060606115be89612cd5565b905082828297509750975050505050509193909250565b60086020528060005260406000206000915054906101000a900460ff1681565b6009818154811061160257fe5b906000526020600020016000915054906101000a900473ffffffffffffffffffffffffffffffffffffffff1681565b60026020528160005260406000206020528060005260406000206000915091509054906101000a900460ff1681565b60035481565b33600080905060008090505b600c805490508110156116fc578273ffffffffffffffffffffffffffffffffffffffff16600c82815481106116a357fe5b9060005260206000200160009054906101000a900473ffffffffffffffffffffffffffffffffffffffff1673ffffffffffffffffffffffffffffffffffffffff1614156116ef57600191505b8080600101915050611672565b50600115158115151461170e57600080fd5b60001515600160003373ffffffffffffffffffffffffffffffffffffffff1673ffffffffffffffffffffffffffffffffffffffff16815260200190815260200160002060008573ffffffffffffffffffffffffffffffffffffffff1673ffffffffffffffffffffffffffffffffffffffff16815260200190815260200160002060009054906101000a900460ff161515146117a857600080fd5b600660008473ffffffffffffffffffffffffffffffffffffffff1673ffffffffffffffffffffffffffffffffffffffff1681526020019081526020016000206000815480929190600101919050555060018060003373ffffffffffffffffffffffffffffffffffffffff1673ffffffffffffffffffffffffffffffffffffffff16815260200190815260200160002060008573ffffffffffffffffffffffffffffffffffffffff1673ffffffffffffffffffffffffffffffffffffffff16815260200190815260200160002060006101000a81548160ff0219169083151502179055506002600c805490508161189a57fe5b04600660008573ffffffffffffffffffffffffffffffffffffffff1673ffffffffffffffffffffffffffffffffffffffff16815260200190815260200160002054111561193a576001600860008573ffffffffffffffffffffffffffffffffffffffff1673ffffffffffffffffffffffffffffffffffffffff16815260200190815260200160002060006101000a81548160ff0219169083151502179055505b505050565b33600080905060008090505b600c805490508110156119d5578273ffffffffffffffffffffffffffffffffffffffff16600c828154811061197c57fe5b9060005260206000200160009054906101000a900473ffffffffffffffffffffffffffffffffffffffff1673ffffffffffffffffffffffffffffffffffffffff1614156119c857600191505b808060010191505061194b565b5060011515811515146119e757600080fd5b600015156000803373ffffffffffffffffffffffffffffffffffffffff1673ffffffffffffffffffffffffffffffffffffffff16815260200190815260200160002060008673ffffffffffffffffffffffffffffffffffffffff1673ffffffffffffffffffffffffffffffffffffffff16815260200190815260200160002060009054906101000a900460ff16151514611a8057600080fd5b600460008573ffffffffffffffffffffffffffffffffffffffff1673ffffffffffffffffffffffffffffffffffffffff168152602001908152602001600020600081548092919060010191905055506000600a60008673ffffffffffffffffffffffffffffffffffffffff1673ffffffffffffffffffffffffffffffffffffffff1681526020019081526020016000208054600181600116156101000203166002900490501415611b805782600a60008673ffffffffffffffffffffffffffffffffffffffff1673ffffffffffffffffffffffffffffffffffffffff1681526020019081526020016000209080519060200190611b7e929190612f57565b505b60016000803373ffffffffffffffffffffffffffffffffffffffff1673ffffffffffffffffffffffffffffffffffffffff16815260200190815260200160002060008673ffffffffffffffffffffffffffffffffffffffff1673ffffffffffffffffffffffffffffffffffffffff16815260200190815260200160002060006101000a81548160ff0219169083151502179055506002600c8054905081611c2357fe5b04600460008673ffffffffffffffffffffffffffffffffffffffff1673ffffffffffffffffffffffffffffffffffffffff168152602001908152602001600020541115611ce35760098490806001815401808255809150509060018203906000526020600020016000909192909190916101000a81548173ffffffffffffffffffffffffffffffffffffffff021916908373ffffffffffffffffffffffffffffffffffffffff160217905550506003600081548092919060010191905055505b50505050565b60076020528060005260406000206000915090505481565b60046020528060005260406000206000915090505481565b606080606033600080600090505b600980549050811015611db1578273ffffffffffffffffffffffffffffffffffffffff1660098281548110611d5857fe5b9060005260206000200160009054906101000a900473ffffffffffffffffffffffffffffffffffffffff1673ffffffffffffffffffffffffffffffffffffffff161415611da457600191505b8080600101915050611d27565b5060011515600860008473ffffffffffffffffffffffffffffffffffffffff1673ffffffffffffffffffffffffffffffffffffffff16815260200190815260200160002060009054906101000a900460ff1615151415611e1057600090505b6001151581151514611e2157600080fd5b8533600080600090505b600d60008473ffffffffffffffffffffffffffffffffffffffff1673ffffffffffffffffffffffffffffffffffffffff16815260200190815260200160002080549050811015611ee65783600d60008573ffffffffffffffffffffffffffffffffffffffff1673ffffffffffffffffffffffffffffffffffffffff1681526020019081526020016000208281548110611ec057fe5b90600052602060002001600001541415611ed957600191505b8080600101915050611e2b565b506001151581151514611ef857600080fd5b6060611f038a612b65565b90506060611f108b612c1d565b90506060611f1d8c612cd5565b90508282829a509a509a5050505050505050509193909250565b33600080600090505b600980549050811015611fca578273ffffffffffffffffffffffffffffffffffffffff1660098281548110611f7157fe5b9060005260206000200160009054906101000a900473ffffffffffffffffffffffffffffffffffffffff1673ffffffffffffffffffffffffffffffffffffffff161415611fbd57600191505b8080600101915050611f40565b5060011515600860008473ffffffffffffffffffffffffffffffffffffffff1673ffffffffffffffffffffffffffffffffffffffff16815260200190815260200160002060009054906101000a900460ff161515141561202957600090505b600115158115151461203a57600080fd5b600d60003373ffffffffffffffffffffffffffffffffffffffff1673ffffffffffffffffffffffffffffffffffffffff168152602001908152602001600020604051806020016040528089815250908060018154018082558091505090600182039060005260206000200160009091929091909150600082015181600001555050506000835114156120cb57600080fd5b85600b600089815260200190815260200160002060000190805190602001906120f5929190612f57565b5084600b60008981526020019081526020016000206001019080519060200190612120929190612f57565b5083600b6000898152602001908152602001600020600201908051906020019061214b929190612f57565b50600b6000888152602001908152602001600020600301429080600181540180825580915050906001820390600052602060002001600090919290919091505550600b60008881526020019081526020016000206004013390806001815401808255809150509060018203906000526020600020016000909192909190916101000a81548173ffffffffffffffffffffffffffffffffffffffff021916908373ffffffffffffffffffffffffffffffffffffffff1602179055505082600b60008981526020019081526020016000206005019080519060200190612230929190612f57565b5050505050505050565b606080606033600080905060008090505b600c805490508110156122d5578273ffffffffffffffffffffffffffffffffffffffff16600c828154811061227c57fe5b9060005260206000200160009054906101000a900473ffffffffffffffffffffffffffffffffffffffff1673ffffffffffffffffffffffffffffffffffffffff1614156122c857600191505b808060010191505061224b565b5060011515811515146122e757600080fd5b60606122f287612d8d565b905060606122ff88612dfb565b9050606061230c89612e9f565b905082828297509750975050505050509193909250565b600c818154811061233057fe5b906000526020600020016000915054906101000a900473ffffffffffffffffffffffffffffffffffffffff1681565b606080606033600080600090505b6009805490508110156123f7578273ffffffffffffffffffffffffffffffffffffffff166009828154811061239e57fe5b9060005260206000200160009054906101000a900473ffffffffffffffffffffffffffffffffffffffff1673ffffffffffffffffffffffffffffffffffffffff1614156123ea57600191505b808060010191505061236d565b5060011515600860008473ffffffffffffffffffffffffffffffffffffffff1673ffffffffffffffffffffffffffffffffffffffff16815260200190815260200160002060009054906101000a900460ff161515141561245657600090505b600115158115151461246757600080fd5b8533600080600090505b600d60008473ffffffffffffffffffffffffffffffffffffffff1673ffffffffffffffffffffffffffffffffffffffff1681526020019081526020016000208054905081101561252c5783600d60008573ffffffffffffffffffffffffffffffffffffffff1673ffffffffffffffffffffffffffffffffffffffff168152602001908152602001600020828154811061250657fe5b9060005260206000200160000154141561251f57600191505b8080600101915050612471565b50600115158115151461253e57600080fd5b60606125498a612d8d565b905060606125568b612dfb565b905060606125638c612e9f565b90508282829a509a509a5050505050505050509193909250565b60056020528060005260406000206000915090505481565b60006020528160005260406000206020528060005260406000206000915091509054906101000a900460ff1681565b6060600a60008373ffffffffffffffffffffffffffffffffffffffff1673ffffffffffffffffffffffffffffffffffffffff1681526020019081526020016000208054600181600116156101000203166002900480601f0160208091040260200160405190810160405280929190818152602001828054600181600116156101000203166002900480156126995780601f1061266e57610100808354040283529160200191612699565b820191906000526020600020905b81548152906001019060200180831161267c57829003601f168201915b50505050509050919050565b600080600090505b60098054905081101561273c578273ffffffffffffffffffffffffffffffffffffffff16600982815481106126de57fe5b9060005260206000200160009054906101000a900473ffffffffffffffffffffffffffffffffffffffff1673ffffffffffffffffffffffffffffffffffffffff16141561272f576001915050612742565b80806001019150506126ad565b50600090505b919050565b60016020528160005260406000206020528060005260406000206000915091509054906101000a900460ff1681565b33600080905060008090505b600c8054905081101561280c578273ffffffffffffffffffffffffffffffffffffffff16600c82815481106127b357fe5b9060005260206000200160009054906101000a900473ffffffffffffffffffffffffffffffffffffffff1673ffffffffffffffffffffffffffffffffffffffff1614156127ff57600191505b8080600101915050612782565b50600115158115151461281e57600080fd5b60001515600260003373ffffffffffffffffffffffffffffffffffffffff1673ffffffffffffffffffffffffffffffffffffffff16815260200190815260200160002060008573ffffffffffffffffffffffffffffffffffffffff1673ffffffffffffffffffffffffffffffffffffffff16815260200190815260200160002060009054906101000a900460ff161515146128b857600080fd5b600760008473ffffffffffffffffffffffffffffffffffffffff1673ffffffffffffffffffffffffffffffffffffffff168152602001908152602001600020600081548092919060010191905055506001600260003373ffffffffffffffffffffffffffffffffffffffff1673ffffffffffffffffffffffffffffffffffffffff16815260200190815260200160002060008573ffffffffffffffffffffffffffffffffffffffff1673ffffffffffffffffffffffffffffffffffffffff16815260200190815260200160002060006101000a81548160ff021916908315150217905550600c80549050600760008573ffffffffffffffffffffffffffffffffffffffff1673ffffffffffffffffffffffffffffffffffffffff168152602001908152602001600020541415612ab05760008090505b600c80549050811015612aae578373ffffffffffffffffffffffffffffffffffffffff16600c8281548110612a1f57fe5b9060005260206000200160009054906101000a900473ffffffffffffffffffffffffffffffffffffffff1673ffffffffffffffffffffffffffffffffffffffff161415612aa157600c8181548110612a7357fe5b9060005260206000200160006101000a81549073ffffffffffffffffffffffffffffffffffffffff02191690555b80806001019150506129ee565b505b505050565b600a6020528060005260406000206000915090508054600181600116156101000203166002900480601f016020809104026020016040519081016040528092919081815260200182805460018160011615610100020316600290048015612b5d5780601f10612b3257610100808354040283529160200191612b5d565b820191906000526020600020905b815481529060010190602001808311612b4057829003601f168201915b505050505081565b6060600b60008381526020019081526020016000206000018054600181600116156101000203166002900480601f016020809104026020016040519081016040528092919081815260200182805460018160011615610100020316600290048015612c115780601f10612be657610100808354040283529160200191612c11565b820191906000526020600020905b815481529060010190602001808311612bf457829003601f168201915b50505050509050919050565b6060600b60008381526020019081526020016000206001018054600181600116156101000203166002900480601f016020809104026020016040519081016040528092919081815260200182805460018160011615610100020316600290048015612cc95780601f10612c9e57610100808354040283529160200191612cc9565b820191906000526020600020905b815481529060010190602001808311612cac57829003601f168201915b50505050509050919050565b6060600b60008381526020019081526020016000206002018054600181600116156101000203166002900480601f016020809104026020016040519081016040528092919081815260200182805460018160011615610100020316600290048015612d815780601f10612d5657610100808354040283529160200191612d81565b820191906000526020600020905b815481529060010190602001808311612d6457829003601f168201915b50505050509050919050565b6060600b6000838152602001908152602001600020600301805480602002602001604051908101604052809291908181526020018280548015612def57602002820191906000526020600020905b815481526020019060010190808311612ddb575b50505050509050919050565b6060600b6000838152602001908152602001600020600401805480602002602001604051908101604052809291908181526020018280548015612e9357602002820191906000526020600020905b8160009054906101000a900473ffffffffffffffffffffffffffffffffffffffff1673ffffffffffffffffffffffffffffffffffffffff1681526020019060010190808311612e49575b50505050509050919050565b6060600b60008381526020019081526020016000206005018054600181600116156101000203166002900480601f016020809104026020016040519081016040528092919081815260200182805460018160011615610100020316600290048015612f4b5780601f10612f2057610100808354040283529160200191612f4b565b820191906000526020600020905b815481529060010190602001808311612f2e57829003601f168201915b50505050509050919050565b828054600181600116156101000203166002900490600052602060002090601f016020900481019282601f10612f9857805160ff1916838001178555612fc6565b82800160010185558215612fc6579182015b82811115612fc5578251825591602001919060010190612faa565b5b509050612fd39190612fd7565b5090565b612ff991905b80821115612ff5576000816000905550600101612fdd565b5090565b9056fea265627a7a72315820ab55ef7a25a983a6df3526b7af2ba31ab872c4b8ec8f32f91371ad67f6e657e664736f6c634300050c0032",
  "source": "pragma solidity ^0.5.8;\r\n\r\ncontract CryptoWills {\r\n\r\n    constructor(address _MrJohn) public {\r\n        mainPersons.push(_MrJohn);\r\n        notariesNames[_MrJohn] = \"MrJohn\";\r\n        notaries.push(_MrJohn);\r\n        notaryCount++;\r\n\r\n    }\r\n\r\n    mapping(address => mapping(address => bool)) public mainPerson;\r\n    mapping(address => mapping(address => bool)) public mainDelPerson;\r\n    mapping(address => mapping(address => bool)) public mainDelPersonMain;\r\n    uint public notaryCount;\r\n    mapping (address => uint) public notaryVotes;\r\n    mapping (address => uint) public mainPersonVotes;\r\n    mapping (address => uint) public notaryDelVotes;\r\n    mapping (address => uint) public mainPersonDelVotes;\r\n    mapping (address => bool) public bannedNotaries;\r\n    address[] public notaries;\r\n    mapping(address => string) public notariesNames;\r\n    mapping (uint => SingleWill) wills;\r\n    address[] public mainPersons;\r\n    mapping(address => Pesels[]) ownedWills;\r\n\r\n    struct SingleWill {\r\n        string name;\r\n        string date;\r\n        string content;\r\n        uint[] currentDate;\r\n        address[] creator;\r\n        string will;\r\n    }\r\n\r\n    struct Pesels{\r\n        uint pesel;\r\n    }\r\n\r\n\r\n\r\n    function isMainPerson(address _address) public view returns(bool){\r\n        for(uint i=0; i<mainPersons.length; i++) {\r\n            if(mainPersons[i]==_address) {\r\n                return true;\r\n            }\r\n        }\r\n        return false;\r\n    }\r\n\r\n    function isNotary(address _address) public view returns(bool){\r\n        for(uint i=0; i<notaries.length; i++) {\r\n            if(notaries[i]==_address) {\r\n                return true;\r\n            }\r\n        }\r\n        return false;\r\n\r\n    }\r\n\r\n    function addNotary(address _newNotary, string memory _name)  onlyMainPerson(msg.sender) public {\r\n        require(mainPerson[msg.sender][_newNotary]==false);\r\n        notaryVotes[_newNotary]++;\r\n        if(bytes(notariesNames[_newNotary]).length==0) {\r\n            notariesNames[_newNotary] = _name;\r\n        }\r\n\r\n        mainPerson[msg.sender][_newNotary]=true;\r\n        if(notaryVotes[_newNotary]>(mainPersons.length/2)) {\r\n            notaries.push(_newNotary);\r\n            notaryCount++;\r\n        }\r\n    }\r\n\r\n    function removeNotary(address _Notary) onlyMainPerson(msg.sender) public {\r\n        require(mainDelPerson[msg.sender][_Notary]==false);\r\n        notaryDelVotes[_Notary]++;\r\n        mainDelPerson[msg.sender][_Notary]=true;\r\n        if(notaryDelVotes[_Notary]>(mainPersons.length/2)) {\r\n            bannedNotaries[_Notary]=true;\r\n        }\r\n    }\r\n\r\n    function addMainPerson(address _newMainPerson) onlyMainPerson(msg.sender) public {\r\n        require(mainPerson[msg.sender][_newMainPerson]==false);\r\n        mainPersonVotes[_newMainPerson]++;\r\n        mainPerson[msg.sender][_newMainPerson]=true;\r\n        if(mainPersonVotes[_newMainPerson]==mainPersons.length) {\r\n            mainPersons.push(_newMainPerson);\r\n        }\r\n    }\r\n\r\n    function removeMainPerson(address _MainPerson) onlyMainPerson(msg.sender) public {\r\n        require(mainDelPersonMain[msg.sender][_MainPerson]==false);\r\n        mainPersonDelVotes[_MainPerson]++;\r\n        mainDelPersonMain[msg.sender][_MainPerson]=true;\r\n        if(mainPersonDelVotes[_MainPerson]==mainPersons.length) {\r\n            for(uint i=0; i<mainPersons.length; i++) {\r\n                if(mainPersons[i] == _MainPerson) {\r\n                    delete mainPersons[i];\r\n                }\r\n            }\r\n        }\r\n    }\r\n\r\n    modifier onlyNotary(address _address) {\r\n        bool x;\r\n        for(uint i=0; i<notaries.length; i++) {\r\n            if(notaries[i]==_address) {\r\n                x = true;\r\n            }\r\n        }\r\n        if(bannedNotaries[_address]==true) {\r\n            x = false;\r\n        }\r\n        require(\r\n            x == true\r\n        );\r\n        _;\r\n    }\r\n    modifier onlyMainPerson(address _address) {\r\n        bool x = false;\r\n        for(uint i=0; i<mainPersons.length; i++) {\r\n            if(mainPersons[i]==_address) {\r\n                x = true;\r\n            }\r\n        }\r\n        require(\r\n            x == true\r\n        );\r\n        _;\r\n    }\r\n    modifier owningPesel(uint _pesel, address _sender) {\r\n        bool x;\r\n        for(uint i=0; i<ownedWills[ _sender].length; i++) {\r\n            if(ownedWills[ _sender][i].pesel == _pesel) {\r\n                x = true;\r\n            }\r\n        }\r\n        require(\r\n            x == true\r\n        );\r\n        _;\r\n    }\r\n    string content;\r\n    uint[] currentDate;\r\n    address[] creator;\r\n    string will;\r\n\r\n    function showFirstPartM(uint _pesel) public view onlyMainPerson(msg.sender) returns (string memory, string memory, string memory) {\r\n        string memory a = showName(_pesel);\r\n        string memory b = showDate(_pesel);\r\n        string memory c = showContent(_pesel);\r\n\r\n        return(a, b, c);\r\n    }\r\n\r\n    function showSecoundPartM(uint _pesel) public view onlyMainPerson(msg.sender) returns (uint[] memory, address[] memory, string memory) {\r\n        uint[] memory d = showCurrentDate(_pesel);\r\n        address[] memory e = showCreator(_pesel);\r\n        string memory f = showWill(_pesel);\r\n        return(d, e, f);\r\n    }\r\n\r\n    function showFirstPartN(uint _pesel) public view onlyNotary(msg.sender) owningPesel(_pesel, msg.sender) returns (string memory, string memory, string memory) {\r\n        string memory a = showName(_pesel);\r\n        string memory b = showDate(_pesel);\r\n        string memory c = showContent(_pesel);\r\n\r\n        return(a, b, c);\r\n    }\r\n\r\n    function showSecoundPartN(uint _pesel) public view onlyNotary(msg.sender) owningPesel(_pesel, msg.sender) returns (uint[] memory, address[] memory, string memory) {\r\n        uint[] memory d = showCurrentDate(_pesel);\r\n        address[] memory e = showCreator(_pesel);\r\n        string memory f = showWill(_pesel);\r\n        return(d, e, f);\r\n    }\r\n\r\n    function showName(uint _pesel) private view returns( string memory ) {\r\n        return(wills[_pesel].name);\r\n    }\r\n    function showDate(uint _pesel) private view returns( string memory ) {\r\n        return(wills[_pesel].date);\r\n    }\r\n    function showContent(uint _pesel) private view returns( string memory ) {\r\n        return(wills[_pesel].content);\r\n    }\r\n    function showCurrentDate(uint _pesel) private view returns( uint[] memory ) {\r\n        return(wills[_pesel].currentDate);\r\n    }\r\n    function showCreator(uint _pesel) private view returns( address[] memory ) {\r\n        return(wills[_pesel].creator);\r\n    }\r\n    function showWill(uint _pesel) private view returns( string memory ) {\r\n        return(wills[_pesel].will);\r\n    }\r\n    function whoHasCreated(address _address) public view returns( string memory ) {\r\n        return(notariesNames[_address]);\r\n    }\r\n\r\n    function addWill(uint pesel, string memory _name, string memory _date, string memory _content, string memory _will) public onlyNotary(msg.sender)  {\r\n        ownedWills[msg.sender].push(Pesels(pesel));\r\n        require(bytes(_will).length!=0);\r\n        wills[pesel].name = _name;\r\n        wills[pesel].date = _date;\r\n        wills[pesel].content = _content;\r\n        wills[pesel].currentDate.push(block.timestamp);\r\n        wills[pesel].creator.push(msg.sender);\r\n        wills[pesel].will = _will;\r\n    }\r\n\r\n}\r\n",
  "sourcePath": "D:/Crypto-Wills/src/contracts/CryptoWills.sol",
  "compiler": {
    "name": "solc",
    "version": "0.5.12+commit.7709ece9.Emscripten.clang"
  },
  "schemaVersion": "3.0.19",
  "updatedAt": "2020-02-13T18:54:08.913Z",
  "networkType": "ethereum",
  "devdoc": {
    "methods": {}
  },
  "userdoc": {
    "methods": {}
  }
}